{
  "contractName": "Election",
  "abi": [
    {
      "constant": true,
      "inputs": [
        {
          "name": "",
          "type": "bytes32"
        }
      ],
      "name": "candidates",
      "outputs": [
        {
          "name": "",
          "type": "int256"
        }
      ],
      "payable": false,
      "stateMutability": "view",
      "type": "function"
    },
    {
      "constant": false,
      "inputs": [],
      "name": "deleteElection",
      "outputs": [],
      "payable": false,
      "stateMutability": "nonpayable",
      "type": "function"
    },
    {
      "constant": true,
      "inputs": [
        {
          "name": "",
          "type": "address"
        }
      ],
      "name": "votingRoll",
      "outputs": [
        {
          "name": "",
          "type": "uint256"
        }
      ],
      "payable": false,
      "stateMutability": "view",
      "type": "function"
    },
    {
      "constant": true,
      "inputs": [],
      "name": "endingBlock",
      "outputs": [
        {
          "name": "",
          "type": "uint256"
        }
      ],
      "payable": false,
      "stateMutability": "view",
      "type": "function"
    },
    {
      "constant": true,
      "inputs": [],
      "name": "isPartial",
      "outputs": [
        {
          "name": "",
          "type": "bool"
        }
      ],
      "payable": false,
      "stateMutability": "view",
      "type": "function"
    },
    {
      "constant": true,
      "inputs": [],
      "name": "numberOfVoters",
      "outputs": [
        {
          "name": "",
          "type": "uint256"
        }
      ],
      "payable": false,
      "stateMutability": "view",
      "type": "function"
    },
    {
      "constant": true,
      "inputs": [],
      "name": "numberOfCandidates",
      "outputs": [
        {
          "name": "",
          "type": "uint256"
        }
      ],
      "payable": false,
      "stateMutability": "view",
      "type": "function"
    },
    {
      "constant": false,
      "inputs": [
        {
          "name": "_candidate",
          "type": "bytes32"
        },
        {
          "name": "_vote",
          "type": "uint256"
        }
      ],
      "name": "vote",
      "outputs": [],
      "payable": false,
      "stateMutability": "nonpayable",
      "type": "function"
    },
    {
      "constant": true,
      "inputs": [
        {
          "name": "",
          "type": "uint256"
        }
      ],
      "name": "votingCandidates",
      "outputs": [
        {
          "name": "",
          "type": "bytes32"
        }
      ],
      "payable": false,
      "stateMutability": "view",
      "type": "function"
    },
    {
      "constant": true,
      "inputs": [],
      "name": "startingBlock",
      "outputs": [
        {
          "name": "",
          "type": "uint256"
        }
      ],
      "payable": false,
      "stateMutability": "view",
      "type": "function"
    },
    {
      "constant": true,
      "inputs": [
        {
          "name": "",
          "type": "uint256"
        }
      ],
      "name": "voters",
      "outputs": [
        {
          "name": "",
          "type": "address"
        }
      ],
      "payable": false,
      "stateMutability": "view",
      "type": "function"
    },
    {
      "constant": false,
      "inputs": [
        {
          "name": "voter",
          "type": "address"
        }
      ],
      "name": "getVotingRoll",
      "outputs": [
        {
          "name": "",
          "type": "uint256"
        }
      ],
      "payable": false,
      "stateMutability": "nonpayable",
      "type": "function"
    },
    {
      "inputs": [
        {
          "name": "_voterIDs",
          "type": "address[]"
        },
        {
          "name": "_weights",
          "type": "uint256[]"
        },
        {
          "name": "_candidates",
          "type": "bytes32[]"
        },
        {
          "name": "_isPartial",
          "type": "bool"
        },
        {
          "name": "_startingBlock",
          "type": "uint256"
        },
        {
          "name": "_endingBlock",
          "type": "uint256"
        }
      ],
      "payable": false,
      "stateMutability": "nonpayable",
      "type": "constructor"
    }
  ],
  "bytecode": "0x6060604052341561000f57600080fd5b604051610afd380380610afd83398101604052808051820191906020018051820191906020018051820191906020018051906020019091908051906020019091908051906020019091905050600080875111801561006e575085518751145b151561007957600080fd5b6000855111151561008957600080fd5b866002908051906020019061009f929190610243565b5084600590805190602001906100b69291906102cd565b50600280549050600381905550600090505b86518110156101505785818151811015156100df57fe5b906020019060200201516001600089848151811015156100fb57fe5b9060200190602002015173ffffffffffffffffffffffffffffffffffffffff1673ffffffffffffffffffffffffffffffffffffffff1681526020019081526020016000208190555080806001019150506100c8565b600580549050600681905550600090505b84518110156101ce577fffffffffffffffffffffffffffffffffffffffffffffffffffffffffffffffff60046000878481518110151561019d57fe5b9060200190602002015160001916600019168152602001908152602001600020819055508080600101915050610161565b826008819055508160098190555083600760006101000a81548160ff02191690831515021790555033600a60006101000a81548173ffffffffffffffffffffffffffffffffffffffff021916908373ffffffffffffffffffffffffffffffffffffffff16021790555050505050505050610388565b8280548282559060005260206000209081019282156102bc579160200282015b828111156102bb5782518260006101000a81548173ffffffffffffffffffffffffffffffffffffffff021916908373ffffffffffffffffffffffffffffffffffffffff16021790555091602001919060010190610263565b5b5090506102c99190610320565b5090565b82805482825590600052602060002090810192821561030f579160200282015b8281111561030e5782518290600019169055916020019190600101906102ed565b5b50905061031c9190610363565b5090565b61036091905b8082111561035c57600081816101000a81549073ffffffffffffffffffffffffffffffffffffffff021916905550600101610326565b5090565b90565b61038591905b80821115610381576000816000905550600101610369565b5090565b90565b610766806103976000396000f3006060604052600436106100ba576000357c0100000000000000000000000000000000000000000000000000000000900463ffffffff1680631a0478d5146100bf57806333be940d146100fa578063394180711461010f5780637b1f337d1461015c5780638c279f9f146101855780639bcc3361146101b25780639c84bb27146101db5780639ef1204c14610204578063b09b2d4514610234578063d91c98d314610273578063da58c7d91461029c578063e47ff762146102ff575b600080fd5b34156100ca57600080fd5b6100e460048080356000191690602001909190505061034c565b6040518082815260200191505060405180910390f35b341561010557600080fd5b61010d610364565b005b341561011a57600080fd5b610146600480803573ffffffffffffffffffffffffffffffffffffffff169060200190919050506103e9565b6040518082815260200191505060405180910390f35b341561016757600080fd5b61016f610401565b6040518082815260200191505060405180910390f35b341561019057600080fd5b610198610407565b604051808215151515815260200191505060405180910390f35b34156101bd57600080fd5b6101c561041a565b6040518082815260200191505060405180910390f35b34156101e657600080fd5b6101ee610420565b6040518082815260200191505060405180910390f35b341561020f57600080fd5b610232600480803560001916906020019091908035906020019091905050610426565b005b341561023f57600080fd5b6102556004808035906020019091905050610688565b60405180826000191660001916815260200191505060405180910390f35b341561027e57600080fd5b6102866106ac565b6040518082815260200191505060405180910390f35b34156102a757600080fd5b6102bd60048080359060200190919050506106b2565b604051808273ffffffffffffffffffffffffffffffffffffffff1673ffffffffffffffffffffffffffffffffffffffff16815260200191505060405180910390f35b341561030a57600080fd5b610336600480803573ffffffffffffffffffffffffffffffffffffffff169060200190919050506106f1565b6040518082815260200191505060405180910390f35b60046020528060005260406000206000915090505481565b600a60009054906101000a900473ffffffffffffffffffffffffffffffffffffffff1673ffffffffffffffffffffffffffffffffffffffff163373ffffffffffffffffffffffffffffffffffffffff161415156103c057600080fd5b600854431015156103d057600080fd5b3073ffffffffffffffffffffffffffffffffffffffff16ff5b60016020528060005260406000206000915090505481565b60095481565b600760009054906101000a900460ff1681565b60035481565b60065481565b600854431015801561043a57506009544311155b151561044557600080fd5b6000600160003373ffffffffffffffffffffffffffffffffffffffff1673ffffffffffffffffffffffffffffffffffffffff1681526020019081526020016000205411151561049357600080fd5b600160003373ffffffffffffffffffffffffffffffffffffffff1673ffffffffffffffffffffffffffffffffffffffff1681526020019081526020016000205481111515156104e157600080fd5b7fffffffffffffffffffffffffffffffffffffffffffffffffffffffffffffffff6004600084600019166000191681526020019081526020016000205414806105455750600060046000846000191660001916815260200190815260200160002054135b151561055057600080fd5b7fffffffffffffffffffffffffffffffffffffffffffffffffffffffffffffffff6004600084600019166000191681526020019081526020016000205414156105b5576000600460008460001916600019168152602001908152602001600020819055505b600760009054906101000a900460ff16151561060e57600160003373ffffffffffffffffffffffffffffffffffffffff1673ffffffffffffffffffffffffffffffffffffffff1681526020019081526020016000205490505b806004600084600019166000191681526020019081526020016000206000828254019250508190555080600160003373ffffffffffffffffffffffffffffffffffffffff1673ffffffffffffffffffffffffffffffffffffffff168152602001908152602001600020600082825403925050819055505050565b60058181548110151561069757fe5b90600052602060002090016000915090505481565b60085481565b6002818154811015156106c157fe5b90600052602060002090016000915054906101000a900473ffffffffffffffffffffffffffffffffffffffff1681565b6000600160008373ffffffffffffffffffffffffffffffffffffffff1673ffffffffffffffffffffffffffffffffffffffff1681526020019081526020016000205490509190505600a165627a7a7230582058ee262fb6cc6bfd0014539980b1a4a4fa573bd2081caca1dd0cae67b58b3af90029",
  "source": "pragma solidity ^ 0.4.17;\ncontract Election {\n\n    string temp;\n    mapping (address => uint) public votingRoll;\n    address[] public voters;\n    uint public numberOfVoters;\n    \n    mapping (bytes32 => int) public candidates;\n    bytes32[] public votingCandidates;\n    uint public numberOfCandidates;\n    \n    bool public isPartial;\n    uint public startingBlock;\n    uint public endingBlock;\n    address electionOwner;\n\n    function Election(address[] _voterIDs, uint[] _weights, bytes32[] _candidates, bool _isPartial, uint _startingBlock, uint _endingBlock) public {\n        \n        require(_voterIDs.length>0 && _voterIDs.length==_weights.length);\n        require(_candidates.length>0);\n        //require(_startingBlock>=block.number);\n        //require(_endingBlock>=block.number);\n        //require(_endingBlock>_startingBlock);\n        \n        voters = _voterIDs;\n        votingCandidates = _candidates;\n        numberOfVoters = voters.length;\n        for (uint i = 0; i < _voterIDs.length; i++) {\n            votingRoll[_voterIDs[i]] = _weights[i];\n        }\n        \n        numberOfCandidates = votingCandidates.length;\n        for (i = 0; i < _candidates.length; i++) {\n            candidates[_candidates[i]] = -1; //set candidate to -1 as uninitalised\n        }\n        \n        startingBlock = _startingBlock;\n        endingBlock = _endingBlock;        \n        isPartial = _isPartial;\n        electionOwner = msg.sender;\n    }\n    \n    function vote(bytes32 _candidate, uint _vote) public {\n        require(block.number>=startingBlock && block.number<=endingBlock); //check that the current block is between the start and end block\n        require(votingRoll[msg.sender]>0); //check that the caller is registered voter\n        require(_vote<=votingRoll[msg.sender]); //check that the caller has enough credits to vote\n        require(candidates[_candidate]==-1 || candidates[_candidate]>0);\n        if (candidates[_candidate]==-1) {  //reset the initial vote for the candidiate\n            candidates[_candidate] = 0;\n        }\n        \n        if (!isPartial) {  //non-partial vote(All or nothing)\n            _vote = votingRoll[msg.sender]; //set to all the users credits\n        }\n        \n        candidates[_candidate] += int(_vote);\n        votingRoll[msg.sender] -= _vote;\n        \n    }\n    \n    function deleteElection() public {\n        require(msg.sender==electionOwner);\n        require(block.number<startingBlock);\n        selfdestruct(this);\n    }\n    \n    function getVotingRoll(address voter) public returns(uint) {\n        return votingRoll[voter];\n    }\n\n}",
  "sourcePath": "/Users/kavilannair/Google Drive/Hack the block/blockPollTesting/contracts/Election.sol",
  "compiler": {
    "name": "solc",
    "version": "0.4.18+commit.9cf6e910.Emscripten.clang"
  },
  "schemaVersion": "1.0.1",
  "updatedAt": "2018-01-30T08:59:07.750Z"
}